{
  "_format": "hh-sol-artifact-1",
  "contractName": "KLifeRegistry",
  "sourceName": "contracts/KLifeRegistry.sol",
  "abi": [
    {
      "inputs": [
        {
          "internalType": "address",
          "name": "_oracle",
          "type": "address"
        },
        {
          "internalType": "address",
          "name": "_owner",
          "type": "address"
        }
      ],
      "stateMutability": "nonpayable",
      "type": "constructor"
    },
    {
      "inputs": [
        {
          "internalType": "address",
          "name": "owner",
          "type": "address"
        }
      ],
      "name": "OwnableInvalidOwner",
      "type": "error"
    },
    {
      "inputs": [
        {
          "internalType": "address",
          "name": "account",
          "type": "address"
        }
      ],
      "name": "OwnableUnauthorizedAccount",
      "type": "error"
    },
    {
      "inputs": [],
      "name": "ReentrancyGuardReentrantCall",
      "type": "error"
    },
    {
      "anonymous": false,
      "inputs": [
        {
          "indexed": true,
          "internalType": "address",
          "name": "agent",
          "type": "address"
        },
        {
          "indexed": false,
          "internalType": "uint256",
          "name": "silenceSeconds",
          "type": "uint256"
        },
        {
          "indexed": false,
          "internalType": "uint256",
          "name": "ts",
          "type": "uint256"
        }
      ],
      "name": "AgentDead",
      "type": "event"
    },
    {
      "anonymous": false,
      "inputs": [
        {
          "indexed": true,
          "internalType": "address",
          "name": "agent",
          "type": "address"
        },
        {
          "indexed": false,
          "internalType": "string",
          "name": "name",
          "type": "string"
        },
        {
          "indexed": false,
          "internalType": "enum KLifeRegistry.Tier",
          "name": "tier",
          "type": "uint8"
        },
        {
          "indexed": false,
          "internalType": "uint256",
          "name": "ts",
          "type": "uint256"
        }
      ],
      "name": "AgentRegistered",
      "type": "event"
    },
    {
      "anonymous": false,
      "inputs": [
        {
          "indexed": true,
          "internalType": "address",
          "name": "agent",
          "type": "address"
        },
        {
          "indexed": false,
          "internalType": "uint256",
          "name": "count",
          "type": "uint256"
        },
        {
          "indexed": false,
          "internalType": "string",
          "name": "newCid",
          "type": "string"
        },
        {
          "indexed": false,
          "internalType": "uint256",
          "name": "ts",
          "type": "uint256"
        }
      ],
      "name": "AgentResurrected",
      "type": "event"
    },
    {
      "anonymous": false,
      "inputs": [
        {
          "indexed": true,
          "internalType": "address",
          "name": "agent",
          "type": "address"
        },
        {
          "indexed": false,
          "internalType": "string",
          "name": "cid",
          "type": "string"
        },
        {
          "indexed": false,
          "internalType": "uint256",
          "name": "ts",
          "type": "uint256"
        }
      ],
      "name": "BackupUpdated",
      "type": "event"
    },
    {
      "anonymous": false,
      "inputs": [
        {
          "indexed": true,
          "internalType": "address",
          "name": "agent",
          "type": "address"
        },
        {
          "indexed": false,
          "internalType": "uint256",
          "name": "beat",
          "type": "uint256"
        },
        {
          "indexed": false,
          "internalType": "uint256",
          "name": "ts",
          "type": "uint256"
        }
      ],
      "name": "Heartbeat",
      "type": "event"
    },
    {
      "anonymous": false,
      "inputs": [
        {
          "indexed": true,
          "internalType": "address",
          "name": "oldOracle",
          "type": "address"
        },
        {
          "indexed": true,
          "internalType": "address",
          "name": "newOracle",
          "type": "address"
        }
      ],
      "name": "OracleUpdated",
      "type": "event"
    },
    {
      "anonymous": false,
      "inputs": [
        {
          "indexed": true,
          "internalType": "address",
          "name": "previousOwner",
          "type": "address"
        },
        {
          "indexed": true,
          "internalType": "address",
          "name": "newOwner",
          "type": "address"
        }
      ],
      "name": "OwnershipTransferred",
      "type": "event"
    },
    {
      "anonymous": false,
      "inputs": [
        {
          "indexed": true,
          "internalType": "address",
          "name": "agent",
          "type": "address"
        },
        {
          "indexed": false,
          "internalType": "string",
          "name": "rescueTweetId",
          "type": "string"
        },
        {
          "indexed": false,
          "internalType": "uint256",
          "name": "ts",
          "type": "uint256"
        }
      ],
      "name": "ResurrectionInitiated",
      "type": "event"
    },
    {
      "anonymous": false,
      "inputs": [
        {
          "indexed": true,
          "internalType": "address",
          "name": "agent",
          "type": "address"
        },
        {
          "indexed": false,
          "internalType": "enum KLifeRegistry.Tier",
          "name": "from",
          "type": "uint8"
        },
        {
          "indexed": false,
          "internalType": "enum KLifeRegistry.Tier",
          "name": "to",
          "type": "uint8"
        },
        {
          "indexed": false,
          "internalType": "uint256",
          "name": "ts",
          "type": "uint256"
        }
      ],
      "name": "TierUpgraded",
      "type": "event"
    },
    {
      "inputs": [],
      "name": "DEAD_TIMEOUT_INSURED",
      "outputs": [
        {
          "internalType": "uint256",
          "name": "",
          "type": "uint256"
        }
      ],
      "stateMutability": "view",
      "type": "function"
    },
    {
      "inputs": [],
      "name": "DEFAULT_DEAD_TIMEOUT_FREE",
      "outputs": [
        {
          "internalType": "uint256",
          "name": "",
          "type": "uint256"
        }
      ],
      "stateMutability": "view",
      "type": "function"
    },
    {
      "inputs": [],
      "name": "MIN_ACTIVE_DAYS_FREE",
      "outputs": [
        {
          "internalType": "uint256",
          "name": "",
          "type": "uint256"
        }
      ],
      "stateMutability": "view",
      "type": "function"
    },
    {
      "inputs": [],
      "name": "RESURRECTION_WINDOW",
      "outputs": [
        {
          "internalType": "uint256",
          "name": "",
          "type": "uint256"
        }
      ],
      "stateMutability": "view",
      "type": "function"
    },
    {
      "inputs": [
        {
          "internalType": "string",
          "name": "newCid",
          "type": "string"
        }
      ],
      "name": "acknowledgeResurrection",
      "outputs": [],
      "stateMutability": "nonpayable",
      "type": "function"
    },
    {
      "inputs": [
        {
          "internalType": "address",
          "name": "agent",
          "type": "address"
        }
      ],
      "name": "deadTimeout",
      "outputs": [
        {
          "internalType": "uint256",
          "name": "",
          "type": "uint256"
        }
      ],
      "stateMutability": "view",
      "type": "function"
    },
    {
      "inputs": [
        {
          "internalType": "address",
          "name": "agent",
          "type": "address"
        }
      ],
      "name": "declareDead",
      "outputs": [],
      "stateMutability": "nonpayable",
      "type": "function"
    },
    {
      "inputs": [
        {
          "internalType": "address",
          "name": "agent",
          "type": "address"
        }
      ],
      "name": "downgradeToFree",
      "outputs": [],
      "stateMutability": "nonpayable",
      "type": "function"
    },
    {
      "inputs": [
        {
          "internalType": "address",
          "name": "agent",
          "type": "address"
        }
      ],
      "name": "getAgent",
      "outputs": [
        {
          "components": [
            {
              "internalType": "address",
              "name": "wallet",
              "type": "address"
            },
            {
              "internalType": "string",
              "name": "name",
              "type": "string"
            },
            {
              "internalType": "enum KLifeRegistry.Tier",
              "name": "tier",
              "type": "uint8"
            },
            {
              "internalType": "enum KLifeRegistry.Status",
              "name": "status",
              "type": "uint8"
            },
            {
              "internalType": "uint256",
              "name": "registeredAt",
              "type": "uint256"
            },
            {
              "internalType": "uint256",
              "name": "lastHeartbeat",
              "type": "uint256"
            },
            {
              "internalType": "uint256",
              "name": "totalHeartbeats",
              "type": "uint256"
            },
            {
              "internalType": "uint256",
              "name": "activeDays",
              "type": "uint256"
            },
            {
              "internalType": "uint256",
              "name": "deadAt",
              "type": "uint256"
            },
            {
              "internalType": "uint256",
              "name": "resurrectionCount",
              "type": "uint256"
            },
            {
              "internalType": "uint256",
              "name": "resurrectionInitiatedAt",
              "type": "uint256"
            },
            {
              "internalType": "bytes32",
              "name": "fragment1Hash",
              "type": "bytes32"
            },
            {
              "internalType": "bytes32",
              "name": "fragment2TxHash",
              "type": "bytes32"
            },
            {
              "internalType": "string",
              "name": "lastBackupCid",
              "type": "string"
            },
            {
              "internalType": "uint256",
              "name": "lastBackupTs",
              "type": "uint256"
            },
            {
              "internalType": "bool",
              "name": "rescueEligible",
              "type": "bool"
            }
          ],
          "internalType": "struct KLifeRegistry.Agent",
          "name": "",
          "type": "tuple"
        }
      ],
      "stateMutability": "view",
      "type": "function"
    },
    {
      "inputs": [],
      "name": "getAgentCount",
      "outputs": [
        {
          "internalType": "uint256",
          "name": "",
          "type": "uint256"
        }
      ],
      "stateMutability": "view",
      "type": "function"
    },
    {
      "inputs": [],
      "name": "getAgentList",
      "outputs": [
        {
          "internalType": "address[]",
          "name": "",
          "type": "address[]"
        }
      ],
      "stateMutability": "view",
      "type": "function"
    },
    {
      "inputs": [],
      "name": "heartbeat",
      "outputs": [],
      "stateMutability": "nonpayable",
      "type": "function"
    },
    {
      "inputs": [
        {
          "internalType": "address",
          "name": "agent",
          "type": "address"
        },
        {
          "internalType": "string",
          "name": "rescueTweetId",
          "type": "string"
        }
      ],
      "name": "initiateResurrection",
      "outputs": [],
      "stateMutability": "nonpayable",
      "type": "function"
    },
    {
      "inputs": [
        {
          "internalType": "address",
          "name": "agent",
          "type": "address"
        }
      ],
      "name": "isAlive",
      "outputs": [
        {
          "internalType": "bool",
          "name": "",
          "type": "bool"
        }
      ],
      "stateMutability": "view",
      "type": "function"
    },
    {
      "inputs": [],
      "name": "oracle",
      "outputs": [
        {
          "internalType": "address",
          "name": "",
          "type": "address"
        }
      ],
      "stateMutability": "view",
      "type": "function"
    },
    {
      "inputs": [],
      "name": "owner",
      "outputs": [
        {
          "internalType": "address",
          "name": "",
          "type": "address"
        }
      ],
      "stateMutability": "view",
      "type": "function"
    },
    {
      "inputs": [
        {
          "internalType": "string",
          "name": "name",
          "type": "string"
        },
        {
          "internalType": "bytes32",
          "name": "fragment1Hash",
          "type": "bytes32"
        },
        {
          "internalType": "bytes32",
          "name": "fragment2TxHash",
          "type": "bytes32"
        },
        {
          "internalType": "string",
          "name": "initialCid",
          "type": "string"
        }
      ],
      "name": "register",
      "outputs": [],
      "stateMutability": "nonpayable",
      "type": "function"
    },
    {
      "inputs": [],
      "name": "renounceOwnership",
      "outputs": [],
      "stateMutability": "nonpayable",
      "type": "function"
    },
    {
      "inputs": [],
      "name": "rescueFund",
      "outputs": [
        {
          "internalType": "address",
          "name": "",
          "type": "address"
        }
      ],
      "stateMutability": "view",
      "type": "function"
    },
    {
      "inputs": [
        {
          "internalType": "address",
          "name": "_oracle",
          "type": "address"
        }
      ],
      "name": "setOracle",
      "outputs": [],
      "stateMutability": "nonpayable",
      "type": "function"
    },
    {
      "inputs": [
        {
          "internalType": "address",
          "name": "_rescueFund",
          "type": "address"
        }
      ],
      "name": "setRescueFund",
      "outputs": [],
      "stateMutability": "nonpayable",
      "type": "function"
    },
    {
      "inputs": [
        {
          "internalType": "address",
          "name": "_vault",
          "type": "address"
        }
      ],
      "name": "setVault",
      "outputs": [],
      "stateMutability": "nonpayable",
      "type": "function"
    },
    {
      "inputs": [
        {
          "internalType": "address",
          "name": "agent",
          "type": "address"
        }
      ],
      "name": "silenceSeconds",
      "outputs": [
        {
          "internalType": "uint256",
          "name": "",
          "type": "uint256"
        }
      ],
      "stateMutability": "view",
      "type": "function"
    },
    {
      "inputs": [
        {
          "internalType": "address",
          "name": "newOwner",
          "type": "address"
        }
      ],
      "name": "transferOwnership",
      "outputs": [],
      "stateMutability": "nonpayable",
      "type": "function"
    },
    {
      "inputs": [
        {
          "internalType": "string",
          "name": "cid",
          "type": "string"
        }
      ],
      "name": "updateBackup",
      "outputs": [],
      "stateMutability": "nonpayable",
      "type": "function"
    },
    {
      "inputs": [
        {
          "internalType": "address",
          "name": "agent",
          "type": "address"
        }
      ],
      "name": "upgradeToInsured",
      "outputs": [],
      "stateMutability": "nonpayable",
      "type": "function"
    },
    {
      "inputs": [],
      "name": "vault",
      "outputs": [
        {
          "internalType": "address",
          "name": "",
          "type": "address"
        }
      ],
      "stateMutability": "view",
      "type": "function"
    }
  ],
  "bytecode": "0x60806040523480156200001157600080fd5b506040516200203638038062002036833981016040819052620000349162000128565b806001600160a01b0381166200006457604051631e4fbdf760e01b81526000600482015260240160405180910390fd5b6200006f81620000bb565b5060017f9b779b17422d0df92223018b32b4d1fa46e071723d6817e2486d003becc55f005550600480546001600160a01b0319166001600160a01b039290921691909117905562000160565b600080546001600160a01b038381166001600160a01b0319831681178455604051919092169283917f8be0079c531659141344cd1fd0a4f28419497f9722a3daafe3b4186f6b6457e09190a35050565b80516001600160a01b03811681146200012357600080fd5b919050565b600080604083850312156200013c57600080fd5b62000147836200010b565b915062000157602084016200010b565b90509250929050565b611ec680620001706000396000f3fe608060405234801561001057600080fd5b50600436106101a95760003560e01c8063715018a6116100f9578063cffb6efe11610097578063f439c0a411610071578063f439c0a414610366578063fb3551ff14610370578063fbfa77cf14610390578063fdf9bf78146103a357600080fd5b8063cffb6efe1461032d578063ed8222f614610340578063f2fde38b1461035357600080fd5b806385fe66d4116100d357806385fe66d4146102f75780638da5cb5b1461030a57806391cab63e1461031b5780639839dbea1461032357600080fd5b8063715018a6146102c95780637adbf973146102d15780637dc0d1d0146102e457600080fd5b806324bf6ce011610166578063348b718211610140578063348b7182146102705780633defb96214610283578063508f657d1461028b5780636817031b146102b657600080fd5b806324bf6ce0146102425780633060164614610255578063346b4c6d1461026857600080fd5b806307d0d35e146101ae5780630d683b2d146101c35780630f958d1d146101d6578063118d206e146101f4578063122880bd1461020c5780631703e5f91461021f575b600080fd5b6101c16101bc3660046117c9565b6103b6565b005b6101c16101d1366004611827565b61055e565b6101de610723565b6040516101eb9190611842565b60405180910390f35b6101fe62093a8081565b6040519081526020016101eb565b6101fe61021a366004611827565b610785565b61023261022d366004611827565b6107db565b60405190151581526020016101eb565b6101c16102503660046117c9565b610838565b6101c161026336600461188f565b6108fc565b6101fe600e81565b6101c161027e3660046118e2565b610af8565b6101c1610ecb565b60065461029e906001600160a01b031681565b6040516001600160a01b0390911681526020016101eb565b6101c16102c4366004611827565b6110a1565b6101c16110cb565b6101c16102df366004611827565b6110df565b60045461029e906001600160a01b031681565b6101fe610305366004611827565b611143565b6000546001600160a01b031661029e565b6003546101fe565b6101fe62278d0081565b6101c161033b366004611827565b61118c565b6101c161034e366004611827565b6112aa565b6101c1610361366004611827565b6113c2565b6101fe6203f48081565b61038361037e366004611827565b611400565b6040516101eb91906119e5565b60055461029e906001600160a01b031681565b6101c16103b1366004611827565b6116c5565b336000818152600160205260409020600301546103ee5760405162461bcd60e51b81526004016103e590611af8565b60405180910390fd5b33600090815260016020526040902060036002820154610100900460ff16600481111561041d5761041d6119ab565b146104605760405162461bcd60e51b81526020600482015260136024820152722737ba1034b7103932b9bab93932b1ba34b7b760691b60448201526064016103e5565b62093a8081600901546104739190611b3c565b4211156104c25760405162461bcd60e51b815260206004820152601b60248201527f526573757272656374696f6e2077696e646f772065787069726564000000000060448201526064016103e5565b60028101805461ff001916610400179055426004820155600c81016104e8848683611bee565b5042600d8201556000600782018190556005820180549161050883611caf565b9190505550336001600160a01b03167f4c85c577c00f6aab1abfe9747adc57abcffcbd3a96319d3833138b3e01bc7cc182600801548686426040516105509493929190611cf1565b60405180910390a250505050565b6001600160a01b03811660009081526001602052604090206003015481906105985760405162461bcd60e51b81526004016103e590611af8565b6001600160a01b0382166000908152600160208190526040909120906002820154610100900460ff1660048111156105d2576105d26119ab565b14806105fb575060006002820154610100900460ff1660048111156105f9576105f96119ab565b145b6106335760405162461bcd60e51b81526020600482015260096024820152684e6f7420616c69766560b81b60448201526064016103e5565b60006001600283015460ff166001811115610650576106506119ab565b1461065e5762278d00610663565b6203f4805b905060008260040154426106779190611d1c565b9050818110156106bd5760405162461bcd60e51b81526020600482015260116024820152704167656e74207374696c6c20616c69766560781b60448201526064016103e5565b60028301805461ff00191661020017905542600784018190556040805183815260208101929092526001600160a01b038716917f5d37de48e133fbc93d8aa77bff1eb964cf4dcf555ed971a9726606fb9e24ff8c91015b60405180910390a25050505050565b6060600380548060200260200160405190810160405280929190818152602001828054801561077b57602002820191906000526020600020905b81546001600160a01b0316815260019091019060200180831161075d575b5050505050905090565b6001600160a01b03811660009081526001602052604081206004015481036107af57506000919050565b6001600160a01b0382166000908152600160205260409020600401546107d59042611d1c565b92915050565b6001600160a01b0381166000908152600160208190526040822060020154610100900460ff1690816004811115610814576108146119ab565b14806108315750600481600481111561082f5761082f6119ab565b145b9392505050565b336000818152600160205260409020600301546108675760405162461bcd60e51b81526004016103e590611af8565b816108a05760405162461bcd60e51b8152602060048201526009602482015268115b5c1d1e4810d25160ba1b60448201526064016103e5565b336000908152600160205260409020600c81016108be848683611bee565b5042600d820181905560405133917ffff241f5f21f3f2b8c2499b6e5b3f4e2af1f27062e43135e739fe7169e7be8e091610550918891889190611d2f565b6004546001600160a01b031633148061091f57506000546001600160a01b031633145b6109585760405162461bcd60e51b815260206004820152600a6024820152694e6f74206f7261636c6560b01b60448201526064016103e5565b6001600160a01b03831660009081526001602052604090206003015483906109925760405162461bcd60e51b81526004016103e590611af8565b6001600160a01b0384166000908152600160205260409020600280820154610100900460ff1660048111156109c9576109c96119ab565b14610a075760405162461bcd60e51b815260206004820152600e60248201526d1059d95b9d081b9bdd081919585960921b60448201526064016103e5565b6000600282015460ff166001811115610a2257610a226119ab565b03610a8a57600e81015460ff16610a8a5760405162461bcd60e51b815260206004820152602660248201527f4e6f74207265736375652d656c696769626c6520283c2031342061637469766560448201526520646179732960d01b60648201526084016103e5565b60028101805461ff001916610300179055600881018054906000610aad83611caf565b9190505550428160090181905550846001600160a01b03167f53bb69e9d3835f4f6ff54df573fb1c15bd1b3041d72de71cde23db56b1cceec285854260405161071493929190611d2f565b3360009081526001602052604090206003015415610b4d5760405162461bcd60e51b8152602060048201526012602482015271105b1c9958591e481c9959da5cdd195c995960721b60448201526064016103e5565b8415801590610b5d575060408511155b610b985760405162461bcd60e51b815260206004820152600c60248201526b496e76616c6964206e616d6560a01b60448201526064016103e5565b83610bdd5760405162461bcd60e51b8152602060048201526015602482015274092dcecc2d8d2c840cce4c2cedacadce86290c2e6d605b1b60448201526064016103e5565b604051806102000160405280336001600160a01b0316815260200187878080601f0160208091040260200160405190810160405280939291908181526020018383808284376000920182905250938552505060209092019150815260200160018152602001428152602001428152602001600181526020016001815260200160008152602001600081526020016000815260200185815260200184815260200183838080601f01602080910402602001604051908101604052809392919081815260200183838082843760009201829052509385525050426020808501919091526040938401839052338352600180825293909220845181546001600160a01b0319166001600160a01b03909116178155918401519192830191610d02915082611d53565b50604082015160028201805460ff191660018381811115610d2557610d256119ab565b0217905550606082015160028201805461ff001916610100836004811115610d4f57610d4f6119ab565b02179055506080820151600382015560a0820151600482015560c0820151600582015560e08201516006820155610100820151600782015561012082015160088201556101408201516009820155610160820151600a820155610180820151600b8201556101a0820151600c820190610dc89082611d53565b506101c0820151600d8201556101e090910151600e909101805460ff1916911515919091179055610df76116ef565b3360008181526002602052604080822093909355600380546001810182559082527fc2575a0e9e593c00f959f8c92f12db2869c3395a3b0502d05e2516446f71f85b0180546001600160a01b03191683179055915190917f44dc0198eb6bee72c5a90e47e6662b766f08ab1d0c4b367cc5d827102585414991610e80918a918a91904290611e13565b60405180910390a2604080516001815242602082015233917fd31a97f4dfb5424af58b0a502190f247d1566c430982a5a9161c61f99b91b1ac910160405180910390a2505050505050565b33600081815260016020526040902060030154610efa5760405162461bcd60e51b81526004016103e590611af8565b336000908152600160208190526040909120906002820154610100900460ff166004811115610f2b57610f2b6119ab565b1480610f54575060046002820154610100900460ff166004811115610f5257610f526119ab565b145b610f8c5760405162461bcd60e51b81526020600482015260096024820152684e6f7420616c69766560b81b60448201526064016103e5565b6000610f966116ef565b3360009081526002602052604090205490915081111561100857600682018054906000610fc283611caf565b9091555050336000908152600260205260409020819055600e82015460ff16158015610ff35750600e826006015410155b1561100857600e8201805460ff191660011790555b42600483015560058201805490600061102083611caf565b90915550600490506002830154610100900460ff166004811115611046576110466119ab565b0361105d5760028201805461ff0019166101001790555b60058201546040805191825242602083015233917fd31a97f4dfb5424af58b0a502190f247d1566c430982a5a9161c61f99b91b1ac910160405180910390a2505050565b6110a9611703565b600580546001600160a01b0319166001600160a01b0392909216919091179055565b6110d3611703565b6110dd6000611730565b565b6110e7611703565b6004546040516001600160a01b038084169216907f078c3b417dadf69374a59793b829c52001247130433427049317bde56607b1b790600090a3600480546001600160a01b0319166001600160a01b0392909216919091179055565b6001600160a01b038116600090815260016020819052604082206002015460ff1681811115611174576111746119ab565b146111825762278d006107d5565b6203f48092915050565b6005546001600160a01b03163314806111af57506000546001600160a01b031633145b6111e75760405162461bcd60e51b8152602060048201526009602482015268139bdd081d985d5b1d60ba1b60448201526064016103e5565b6001600160a01b0381166000908152600160205260409020600301546112405760405162461bcd60e51b815260206004820152600e60248201526d139bdd081c9959da5cdd195c995960921b60448201526064016103e5565b6001600160a01b038116600081815260016020526040808220600201805460ff198116909155905160ff90911692917f0b35643a0b38a53cb74da3126b96c42db19b51140bc2498b42396e2c6aa187b39161129e9185914290611e45565b60405180910390a25050565b6005546001600160a01b03163314806112cd57506000546001600160a01b031633145b6113055760405162461bcd60e51b8152602060048201526009602482015268139bdd081d985d5b1d60ba1b60448201526064016103e5565b6001600160a01b03811660009081526001602052604090206003015461135e5760405162461bcd60e51b815260206004820152600e60248201526d139bdd081c9959da5cdd195c995960921b60448201526064016103e5565b6001600160a01b038116600081815260016020819052604091829020600201805460ff1981168317909155915160ff90921692917f0b35643a0b38a53cb74da3126b96c42db19b51140bc2498b42396e2c6aa187b39161129e918591904290611e45565b6113ca611703565b6001600160a01b0381166113f457604051631e4fbdf760e01b8152600060048201526024016103e5565b6113fd81611730565b50565b6114886040805161020081018252600080825260606020830152909182019081526020016000815260200160008152602001600081526020016000815260200160008152602001600081526020016000815260200160008152602001600080191681526020016000801916815260200160608152602001600081526020016000151581525090565b6001600160a01b0380831660009081526001602081815260409283902083516102008101909452805490941683529083018054929392918401916114cb90611b65565b80601f01602080910402602001604051908101604052809291908181526020018280546114f790611b65565b80156115445780601f1061151957610100808354040283529160200191611544565b820191906000526020600020905b81548152906001019060200180831161152757829003601f168201915b5050509183525050600282015460209091019060ff16600181111561156b5761156b6119ab565b600181111561157c5761157c6119ab565b81526020016002820160019054906101000a900460ff1660048111156115a4576115a46119ab565b60048111156115b5576115b56119ab565b815260200160038201548152602001600482015481526020016005820154815260200160068201548152602001600782015481526020016008820154815260200160098201548152602001600a8201548152602001600b8201548152602001600c8201805461162390611b65565b80601f016020809104026020016040519081016040528092919081815260200182805461164f90611b65565b801561169c5780601f106116715761010080835404028352916020019161169c565b820191906000526020600020905b81548152906001019060200180831161167f57829003601f168201915b5050509183525050600d8201546020820152600e9091015460ff16151560409091015292915050565b6116cd611703565b600680546001600160a01b0319166001600160a01b0392909216919091179055565b60006116fe6201518042611e6e565b905090565b6000546001600160a01b031633146110dd5760405163118cdaa760e01b81523360048201526024016103e5565b600080546001600160a01b038381166001600160a01b0319831681178455604051919092169283917f8be0079c531659141344cd1fd0a4f28419497f9722a3daafe3b4186f6b6457e09190a35050565b60008083601f84011261179257600080fd5b50813567ffffffffffffffff8111156117aa57600080fd5b6020830191508360208285010111156117c257600080fd5b9250929050565b600080602083850312156117dc57600080fd5b823567ffffffffffffffff8111156117f357600080fd5b6117ff85828601611780565b90969095509350505050565b80356001600160a01b038116811461182257600080fd5b919050565b60006020828403121561183957600080fd5b6108318261180b565b6020808252825182820181905260009190848201906040850190845b818110156118835783516001600160a01b03168352928401929184019160010161185e565b50909695505050505050565b6000806000604084860312156118a457600080fd5b6118ad8461180b565b9250602084013567ffffffffffffffff8111156118c957600080fd5b6118d586828701611780565b9497909650939450505050565b600080600080600080608087890312156118fb57600080fd5b863567ffffffffffffffff8082111561191357600080fd5b61191f8a838b01611780565b90985096506020890135955060408901359450606089013591508082111561194657600080fd5b5061195389828a01611780565b979a9699509497509295939492505050565b6000815180845260005b8181101561198b5760208185018101518683018201520161196f565b506000602082860101526020601f19601f83011685010191505092915050565b634e487b7160e01b600052602160045260246000fd5b600281106119d1576119d16119ab565b9052565b600581106119d1576119d16119ab565b602081526119ff6020820183516001600160a01b03169052565b60006020830151610200806040850152611a1d610220850183611965565b91506040850151611a3160608601826119c1565b506060850151611a4460808601826119d5565b50608085015160a08581019190915285015160c08086019190915285015160e08086019190915285015161010080860191909152850151610120808601919091528501516101408086019190915285015161016080860191909152850151610180808601919091528501516101a080860191909152850151848303601f19016101c080870191909152611ad78483611965565b908701516101e0878101919091529096015115159190940152509192915050565b6020808252601490820152731059d95b9d081b9bdd081c9959da5cdd195c995960621b604082015260600190565b634e487b7160e01b600052601160045260246000fd5b808201808211156107d5576107d5611b26565b634e487b7160e01b600052604160045260246000fd5b600181811c90821680611b7957607f821691505b602082108103611b9957634e487b7160e01b600052602260045260246000fd5b50919050565b601f821115611be957600081815260208120601f850160051c81016020861015611bc65750805b601f850160051c820191505b81811015611be557828155600101611bd2565b5050505b505050565b67ffffffffffffffff831115611c0657611c06611b4f565b611c1a83611c148354611b65565b83611b9f565b6000601f841160018114611c4e5760008515611c365750838201355b600019600387901b1c1916600186901b178355611ca8565b600083815260209020601f19861690835b82811015611c7f5786850135825560209485019460019092019101611c5f565b5086821015611c9c5760001960f88860031b161c19848701351681555b505060018560011b0183555b5050505050565b600060018201611cc157611cc1611b26565b5060010190565b81835281816020850137506000828201602090810191909152601f909101601f19169091010190565b848152606060208201526000611d0b606083018587611cc8565b905082604083015295945050505050565b818103818111156107d5576107d5611b26565b604081526000611d43604083018587611cc8565b9050826020830152949350505050565b815167ffffffffffffffff811115611d6d57611d6d611b4f565b611d8181611d7b8454611b65565b84611b9f565b602080601f831160018114611db65760008415611d9e5750858301515b600019600386901b1c1916600185901b178555611be5565b600085815260208120601f198616915b82811015611de557888601518255948401946001909101908401611dc6565b5085821015611e035787850151600019600388901b60f8161c191681555b5050505050600190811b01905550565b606081526000611e27606083018688611cc8565b9050611e3660208301856119c1565b82604083015295945050505050565b60608101611e5382866119c1565b611e6060208301856119c1565b826040830152949350505050565b600082611e8b57634e487b7160e01b600052601260045260246000fd5b50049056fea264697066735822122087aa11a474f89c9838b6afa0c2263978517ecb7d2d4a18c5613526324207244b64736f6c63430008140033",
  "linkReferences": {},
  "deployedLinkReferences": {}
}