{
  "_format": "hh-sol-artifact-1",
  "contractName": "KLifeRescueFund",
  "sourceName": "contracts/KLifeRescueFund.sol",
  "abi": [
    {
      "inputs": [
        {
          "internalType": "address",
          "name": "_token6022",
          "type": "address"
        },
        {
          "internalType": "address",
          "name": "_registry",
          "type": "address"
        },
        {
          "internalType": "address",
          "name": "_oracle",
          "type": "address"
        },
        {
          "internalType": "address",
          "name": "_owner",
          "type": "address"
        }
      ],
      "stateMutability": "nonpayable",
      "type": "constructor"
    },
    {
      "inputs": [
        {
          "internalType": "address",
          "name": "owner",
          "type": "address"
        }
      ],
      "name": "OwnableInvalidOwner",
      "type": "error"
    },
    {
      "inputs": [
        {
          "internalType": "address",
          "name": "account",
          "type": "address"
        }
      ],
      "name": "OwnableUnauthorizedAccount",
      "type": "error"
    },
    {
      "inputs": [],
      "name": "ReentrancyGuardReentrantCall",
      "type": "error"
    },
    {
      "inputs": [
        {
          "internalType": "address",
          "name": "token",
          "type": "address"
        }
      ],
      "name": "SafeERC20FailedOperation",
      "type": "error"
    },
    {
      "anonymous": false,
      "inputs": [
        {
          "indexed": true,
          "internalType": "address",
          "name": "donor",
          "type": "address"
        },
        {
          "indexed": false,
          "internalType": "uint256",
          "name": "amount",
          "type": "uint256"
        },
        {
          "indexed": false,
          "internalType": "uint256",
          "name": "newScore",
          "type": "uint256"
        },
        {
          "indexed": false,
          "internalType": "uint256",
          "name": "ts",
          "type": "uint256"
        }
      ],
      "name": "Donated",
      "type": "event"
    },
    {
      "anonymous": false,
      "inputs": [
        {
          "indexed": true,
          "internalType": "address",
          "name": "oldOracle",
          "type": "address"
        },
        {
          "indexed": true,
          "internalType": "address",
          "name": "newOracle",
          "type": "address"
        }
      ],
      "name": "OracleUpdated",
      "type": "event"
    },
    {
      "anonymous": false,
      "inputs": [
        {
          "indexed": true,
          "internalType": "address",
          "name": "previousOwner",
          "type": "address"
        },
        {
          "indexed": true,
          "internalType": "address",
          "name": "newOwner",
          "type": "address"
        }
      ],
      "name": "OwnershipTransferred",
      "type": "event"
    },
    {
      "anonymous": false,
      "inputs": [
        {
          "indexed": true,
          "internalType": "address",
          "name": "agent",
          "type": "address"
        },
        {
          "indexed": false,
          "internalType": "uint256",
          "name": "amount",
          "type": "uint256"
        },
        {
          "indexed": false,
          "internalType": "uint256",
          "name": "ts",
          "type": "uint256"
        }
      ],
      "name": "RescueTriggered",
      "type": "event"
    },
    {
      "inputs": [],
      "name": "DONATE_BOOST",
      "outputs": [
        {
          "internalType": "uint256",
          "name": "",
          "type": "uint256"
        }
      ],
      "stateMutability": "view",
      "type": "function"
    },
    {
      "inputs": [],
      "name": "RESCUE_AMOUNT",
      "outputs": [
        {
          "internalType": "uint256",
          "name": "",
          "type": "uint256"
        }
      ],
      "stateMutability": "view",
      "type": "function"
    },
    {
      "inputs": [],
      "name": "RESCUE_COOLDOWN",
      "outputs": [
        {
          "internalType": "uint256",
          "name": "",
          "type": "uint256"
        }
      ],
      "stateMutability": "view",
      "type": "function"
    },
    {
      "inputs": [],
      "name": "balance",
      "outputs": [
        {
          "internalType": "uint256",
          "name": "",
          "type": "uint256"
        }
      ],
      "stateMutability": "view",
      "type": "function"
    },
    {
      "inputs": [
        {
          "internalType": "address",
          "name": "agent",
          "type": "address"
        }
      ],
      "name": "canRescue",
      "outputs": [
        {
          "internalType": "bool",
          "name": "",
          "type": "bool"
        }
      ],
      "stateMutability": "view",
      "type": "function"
    },
    {
      "inputs": [
        {
          "internalType": "uint256",
          "name": "amount",
          "type": "uint256"
        }
      ],
      "name": "donate",
      "outputs": [],
      "stateMutability": "nonpayable",
      "type": "function"
    },
    {
      "inputs": [
        {
          "internalType": "address",
          "name": "",
          "type": "address"
        }
      ],
      "name": "donated",
      "outputs": [
        {
          "internalType": "uint256",
          "name": "",
          "type": "uint256"
        }
      ],
      "stateMutability": "view",
      "type": "function"
    },
    {
      "inputs": [
        {
          "internalType": "address",
          "name": "to",
          "type": "address"
        },
        {
          "internalType": "uint256",
          "name": "amount",
          "type": "uint256"
        }
      ],
      "name": "emergencyWithdraw",
      "outputs": [],
      "stateMutability": "nonpayable",
      "type": "function"
    },
    {
      "inputs": [
        {
          "internalType": "address",
          "name": "",
          "type": "address"
        }
      ],
      "name": "lastRescueTs",
      "outputs": [
        {
          "internalType": "uint256",
          "name": "",
          "type": "uint256"
        }
      ],
      "stateMutability": "view",
      "type": "function"
    },
    {
      "inputs": [],
      "name": "oracle",
      "outputs": [
        {
          "internalType": "address",
          "name": "",
          "type": "address"
        }
      ],
      "stateMutability": "view",
      "type": "function"
    },
    {
      "inputs": [],
      "name": "owner",
      "outputs": [
        {
          "internalType": "address",
          "name": "",
          "type": "address"
        }
      ],
      "stateMutability": "view",
      "type": "function"
    },
    {
      "inputs": [
        {
          "internalType": "address",
          "name": "agent",
          "type": "address"
        }
      ],
      "name": "priorityScore",
      "outputs": [
        {
          "internalType": "uint256",
          "name": "",
          "type": "uint256"
        }
      ],
      "stateMutability": "view",
      "type": "function"
    },
    {
      "inputs": [],
      "name": "registry",
      "outputs": [
        {
          "internalType": "contract IKLifeRegistry",
          "name": "",
          "type": "address"
        }
      ],
      "stateMutability": "view",
      "type": "function"
    },
    {
      "inputs": [],
      "name": "renounceOwnership",
      "outputs": [],
      "stateMutability": "nonpayable",
      "type": "function"
    },
    {
      "inputs": [
        {
          "internalType": "address",
          "name": "agent",
          "type": "address"
        },
        {
          "internalType": "string",
          "name": "ref",
          "type": "string"
        }
      ],
      "name": "rescue",
      "outputs": [],
      "stateMutability": "nonpayable",
      "type": "function"
    },
    {
      "inputs": [],
      "name": "rescueCapacity",
      "outputs": [
        {
          "internalType": "uint256",
          "name": "",
          "type": "uint256"
        }
      ],
      "stateMutability": "view",
      "type": "function"
    },
    {
      "inputs": [
        {
          "internalType": "address",
          "name": "",
          "type": "address"
        }
      ],
      "name": "rescueCount",
      "outputs": [
        {
          "internalType": "uint256",
          "name": "",
          "type": "uint256"
        }
      ],
      "stateMutability": "view",
      "type": "function"
    },
    {
      "inputs": [
        {
          "internalType": "address",
          "name": "_oracle",
          "type": "address"
        }
      ],
      "name": "setOracle",
      "outputs": [],
      "stateMutability": "nonpayable",
      "type": "function"
    },
    {
      "inputs": [],
      "name": "token6022",
      "outputs": [
        {
          "internalType": "contract IERC20",
          "name": "",
          "type": "address"
        }
      ],
      "stateMutability": "view",
      "type": "function"
    },
    {
      "inputs": [],
      "name": "totalDonated",
      "outputs": [
        {
          "internalType": "uint256",
          "name": "",
          "type": "uint256"
        }
      ],
      "stateMutability": "view",
      "type": "function"
    },
    {
      "inputs": [],
      "name": "totalRescues",
      "outputs": [
        {
          "internalType": "uint256",
          "name": "",
          "type": "uint256"
        }
      ],
      "stateMutability": "view",
      "type": "function"
    },
    {
      "inputs": [
        {
          "internalType": "address",
          "name": "newOwner",
          "type": "address"
        }
      ],
      "name": "transferOwnership",
      "outputs": [],
      "stateMutability": "nonpayable",
      "type": "function"
    }
  ],
  "bytecode": "0x60c06040523480156200001157600080fd5b506040516200116138038062001161833981016040819052620000349162000131565b806001600160a01b0381166200006457604051631e4fbdf760e01b81526000600482015260240160405180910390fd5b6200006f81620000c4565b5060017f9b779b17422d0df92223018b32b4d1fa46e071723d6817e2486d003becc55f0055506001600160a01b0392831660805290821660a052600180546001600160a01b031916919092161790556200018e565b600080546001600160a01b038381166001600160a01b0319831681178455604051919092169283917f8be0079c531659141344cd1fd0a4f28419497f9722a3daafe3b4186f6b6457e09190a35050565b80516001600160a01b03811681146200012c57600080fd5b919050565b600080600080608085870312156200014857600080fd5b620001538562000114565b9350620001636020860162000114565b9250620001736040860162000114565b9150620001836060860162000114565b905092959194509250565b60805160a051610f6e620001f3600039600081816101c001526106780152600081816102b60152818161036a01528181610555015281816106f0015281816107db0152818161086b015281816108b8015281816109560152610a280152610f6e6000f3fe608060405234801561001057600080fd5b50600436106101415760003560e01c806395ccea67116100b8578063b69ef8a81161007c578063b69ef8a8146102a9578063ca7ae254146102b1578063f14faf6f146102d8578063f2d930fc146102eb578063f2fde38b146102f3578063fb690dcc1461030657600080fd5b806395ccea67146102545780639f4052f214610267578063aa966ba314610287578063abd497a514610291578063b537c0c6146102a157600080fd5b80637adbf9731161010a5780637adbf973146101a85780637b103999146101bb5780637dc0d1d0146101fa578063847295b71461020d5780638da5cb5b1461022057806390a6267a1461023157600080fd5b8062b370441461014657806334c3220214610162578063618178e2146101755780636a8c243714610195578063715018a61461019e575b600080fd5b61014f60025481565b6040519081526020015b60405180910390f35b61014f610170366004610d5c565b610326565b61014f610183366004610d5c565b60066020526000908152604090205481565b61014f60035481565b6101a66103e5565b005b6101a66101b6366004610d5c565b6103f9565b6101e27f000000000000000000000000000000000000000000000000000000000000000081565b6040516001600160a01b039091168152602001610159565b6001546101e2906001600160a01b031681565b6101a661021b366004610d7e565b61045d565b6000546001600160a01b03166101e2565b61024461023f366004610d5c565b61078a565b6040519015158152602001610159565b6101a6610262366004610e01565b610856565b61014f610275366004610d5c565b60056020526000908152604090205481565b61014f62278d0081565b61014f683635c9adc5dea0000081565b61014f610896565b61014f61093e565b6101e27f000000000000000000000000000000000000000000000000000000000000000081565b6101a66102e6366004610e2b565b6109ce565b61014f600281565b6101a6610301366004610d5c565b610af3565b61014f610314366004610d5c565b60046020526000908152604090205481565b6001600160a01b03811660009081526004602052604081205461034b90600290610e5a565b6040516370a0823160e01b81526001600160a01b0384811660048301527f000000000000000000000000000000000000000000000000000000000000000016906370a0823190602401602060405180830381865afa1580156103b1573d6000803e3d6000fd5b505050506040513d601f19601f820116820180604052508101906103d59190610e71565b6103df9190610e8a565b92915050565b6103ed610b2e565b6103f76000610b5b565b565b610401610b2e565b6001546040516001600160a01b038084169216907f078c3b417dadf69374a59793b829c52001247130433427049317bde56607b1b790600090a3600180546001600160a01b0319166001600160a01b0392909216919091179055565b6001546001600160a01b031633148061048057506000546001600160a01b031633145b6104be5760405162461bcd60e51b815260206004820152600a6024820152694e6f74206f7261636c6560b01b60448201526064015b60405180910390fd5b6104c6610bab565b6001600160a01b0383166000908152600560205260409020546104ed9062278d0090610e8a565b4210156105355760405162461bcd60e51b815260206004820152601660248201527552657363756520636f6f6c646f776e2061637469766560501b60448201526064016104b5565b6040516370a0823160e01b8152306004820152683635c9adc5dea00000907f00000000000000000000000000000000000000000000000000000000000000006001600160a01b0316906370a0823190602401602060405180830381865afa1580156105a4573d6000803e3d6000fd5b505050506040513d601f19601f820116820180604052508101906105c89190610e71565b10156106165760405162461bcd60e51b815260206004820152601860248201527f496e73756666696369656e74205265736375652046756e64000000000000000060448201526064016104b5565b6001600160a01b03831660009081526005602090815260408083204290556006909152812080549161064783610e9d565b90915550506003805490600061065c83610e9d565b90915550506040516318300b2360e11b81526001600160a01b037f000000000000000000000000000000000000000000000000000000000000000016906330601646906106b190869086908690600401610eb6565b600060405180830381600087803b1580156106cb57600080fd5b505af11580156106df573d6000803e3d6000fd5b506107229250506001600160a01b037f000000000000000000000000000000000000000000000000000000000000000016905084683635c9adc5dea00000610bc7565b60408051683635c9adc5dea0000081524260208201526001600160a01b038516917f182b1ed2d41d99bf8ad62e1dfc4cec30c94b5366a3ead66a8ed3249ee6ed05de910160405180910390a26107856001600080516020610f1983398151915255565b505050565b6001600160a01b0381166000908152600560205260408120546107b19062278d0090610e8a565b42101580156103df57506040516370a0823160e01b8152306004820152683635c9adc5dea00000907f00000000000000000000000000000000000000000000000000000000000000006001600160a01b0316906370a0823190602401602060405180830381865afa15801561082a573d6000803e3d6000fd5b505050506040513d601f19601f8201168201806040525081019061084e9190610e71565b101592915050565b61085e610b2e565b6108926001600160a01b037f0000000000000000000000000000000000000000000000000000000000000000168383610bc7565b5050565b6040516370a0823160e01b815230600482015260009081906001600160a01b037f000000000000000000000000000000000000000000000000000000000000000016906370a0823190602401602060405180830381865afa1580156108ff573d6000803e3d6000fd5b505050506040513d601f19601f820116820180604052508101906109239190610e71565b9050610938683635c9adc5dea0000082610ef6565b91505090565b6040516370a0823160e01b81523060048201526000907f00000000000000000000000000000000000000000000000000000000000000006001600160a01b0316906370a0823190602401602060405180830381865afa1580156109a5573d6000803e3d6000fd5b505050506040513d601f19601f820116820180604052508101906109c99190610e71565b905090565b6109d6610bab565b60008111610a1b5760405162461bcd60e51b81526020600482015260126024820152710416d6f756e74206d757374206265203e20360741b60448201526064016104b5565b610a506001600160a01b037f000000000000000000000000000000000000000000000000000000000000000016333084610bfc565b3360009081526004602052604081208054839290610a6f908490610e8a565b925050819055508060026000828254610a889190610e8a565b909155503390507f8d09c6745838fd32e92a7aec9e4c21f8fcc0ddf4300881dcffdbf060ba8bcff282610aba83610326565b604080519283526020830191909152429082015260600160405180910390a2610af06001600080516020610f1983398151915255565b50565b610afb610b2e565b6001600160a01b038116610b2557604051631e4fbdf760e01b8152600060048201526024016104b5565b610af081610b5b565b6000546001600160a01b031633146103f75760405163118cdaa760e01b81523360048201526024016104b5565b600080546001600160a01b038381166001600160a01b0319831681178455604051919092169283917f8be0079c531659141344cd1fd0a4f28419497f9722a3daafe3b4186f6b6457e09190a35050565b610bb3610c38565b6002600080516020610f1983398151915255565b610bd48383836001610c68565b61078557604051635274afe760e01b81526001600160a01b03841660048201526024016104b5565b610c0a848484846001610cce565b610c3257604051635274afe760e01b81526001600160a01b03851660048201526024016104b5565b50505050565b600080516020610f19833981519152546002036103f757604051633ee5aeb560e01b815260040160405180910390fd5b60405163a9059cbb60e01b60008181526001600160a01b038616600452602485905291602083604481808b5af192506001600051148316610cc2578383151615610cb5573d6000823e3d81fd5b6000873b113d1516831692505b60405250949350505050565b6040516323b872dd60e01b60008181526001600160a01b038781166004528616602452604485905291602083606481808c5af192506001600051148316610d2e578383151615610d21573d6000823e3d81fd5b6000883b113d1516831692505b60405250600060605295945050505050565b80356001600160a01b0381168114610d5757600080fd5b919050565b600060208284031215610d6e57600080fd5b610d7782610d40565b9392505050565b600080600060408486031215610d9357600080fd5b610d9c84610d40565b9250602084013567ffffffffffffffff80821115610db957600080fd5b818601915086601f830112610dcd57600080fd5b813581811115610ddc57600080fd5b876020828501011115610dee57600080fd5b6020830194508093505050509250925092565b60008060408385031215610e1457600080fd5b610e1d83610d40565b946020939093013593505050565b600060208284031215610e3d57600080fd5b5035919050565b634e487b7160e01b600052601160045260246000fd5b80820281158282048414176103df576103df610e44565b600060208284031215610e8357600080fd5b5051919050565b808201808211156103df576103df610e44565b600060018201610eaf57610eaf610e44565b5060010190565b6001600160a01b03841681526040602082018190528101829052818360608301376000818301606090810191909152601f909201601f1916010192915050565b600082610f1357634e487b7160e01b600052601260045260246000fd5b50049056fe9b779b17422d0df92223018b32b4d1fa46e071723d6817e2486d003becc55f00a2646970667358221220154846b39a795abbc4ad678494f1c3093847c7470b48df9e4bf97fecef268a2164736f6c63430008140033",
  "linkReferences": {},
  "deployedLinkReferences": {}
}